:10000E00EFD3940440037FFF221201CCFED394035E
:10001E0040037FFF22EF14606A1470030200E314A2
:10002E00700302013514700302018124046003027F
:10003E0001C9EE700E9000011201E5F45293529434
:10004E000201C91201CCFFB401109000011201E5AA
:10005E00FEF45293EE42940201C9EFB4020D9000E9
:10006E00011201E5429342940201C91201CC6403CC
:10007E0060030201C99000011201E54293F452940B
:10008E000201C91201CCFF700E9000011201E5F4BD
:10009E00529152920201C9EFB40110900001120167
:1000AE00E5FFF45291EF42920201C91201CCFFB466
:1000BE00020D9000011201E5429142920201C9EF38
:1000CE00640360030201C99000011201E54291F43C
:1000DE0052920201C91201CCFF700E900001120162
:1000EE00E5F4529552960201C9EFB4011090000149
:1000FE001201E5FFF45295EF42960201C91201CCAE
:10010E00FFB4020D9000011201E5429542960201E4
:10011E00C9EF640360030201C99000011201E542B8
:10012E0095F452960201C91201CCFF700E90000197
:10013E001201E5F452B152B20201C9EFB4010F90AF
:10014E0000011201E5FFF452B1EF42B2806D1201CF
:10015E00CCFFB4020C9000011201E542B142B28014
:10016E005AEF640370559000011201E542B1F4524A
:10017E00B280481201CCFF700D9000011201E5F41F
:10018E0052B352B48035EFB4010F9000011201E565
:10019E00FFF452B3EF42B480221201CCFFB4020C32
:1001AE009000011201E542B342B4800FEFB4030B8D
:0E01BE009000011201E542B3F452B47F00221A
:1004D300EFD3940440037FFF22ED70037FFF22EFED
:1004E3001460121460141460161460182404701934
:1004F300ED42808017ED42908012ED42A0800DED19
:0F05030042B08008ED42E880037FFF227F002294
:10044B00EFD3940440037FFF22ED70037FFF22EF75
:10045B0014601314601614601914601C2404701EAD
:10046B00EDF45280801BEDF452908015EDF452A008
:10047B00800FEDF452B08009EDF452E880037FFF5A
:04048B00227F0022AA
:1005E000AE07EED3940440037FFF22EBB40107AFC4
:1005F000061204D38008EB7005AF0612044B7FFF90
:0106000022D7
:10058100EF146011146012146013146014240470C9
:1005910014AE808013AE90800FAEA0800BAEB08001
:1005A10007AEE880037FFF22EE5D60037F01227FBB
:0105B1000049
:0105B2002226
:0B061A0042000303E843000000000062
:10051200C3EF9464EE94004009D3EF9410EE942755
:1005220040037FFF22AB07AA06E4F9F87F807E84AE
:100532007D1EFC12048FE47B02FAF9F8120212907B
:0A0542000003EEF0A3EFF07F0022AB
:0C062A00900000EBF0A3EAF0A3E9F0223E
:03000B000203D518
:1003D500C0E0C0F0C083C082C0D075D000C000C0EE
:1003E50001C002C003C004C005C006C007900003D9
:1003F500E0FEA3E0FBE4C39BFFE49EFE74019400D2
:10040500FDE49400FC78081202618F8C900003A330
:10041500E0F58A900000E0FBA3E0FAA3E04A4B6018
:100425000A900000A3A3E0F9120275D007D006D008
:1004350005D004D003D002D001D000D0D0D082D0D6
:0604450083D0F0D0E0328C
:10054C005389F0438901900003E0FEA3E0FBE4C370
:10055C009BFFE49EFE74019400FDE49400FC78087B
:10056C001202618F8C900003A3E0F58AC28DD28CAD
:05057C00D2A9D2AF225C
:04062500410005008B
:1005B300900005E004F0E0C394E874809483401C49
:1005C3007D107F02120581EF70047B0180027B00A6
:0D05D3007D107F021205E0E4900005F0228B
:100601004395105396EF7B017D107F021205E01296
:0906110000007FE87E03020512DF
:03000000020349AF
:0C034900787FE4F6D8FD75810702039070
:1001CC00BB010689828A83E0225002E722BBFE0231
:0901DC00E32289828A83E4932264
:1001E500BB010CE58229F582E5833AF583E02250CF
:1001F50006E92582F8E622BBFE06E92582F8E22219
:0D020500E58229F582E5833AF583E4932232
:10021200E88FF0A4CC8BF0A42CFCE98EF0A42CFC8B
:100222008AF0EDA42CFCEA8EF0A4CDA8F08BF0A409
:100232002DCC3825F0FDE98FF0A42CCD35F0FCEB68
:100242008EF0A4FEA9F0EB8FF0A4CFC5F02ECD392D
:0F025200FEE43CFCEAA42DCE35F0FDE43CFC229A
:10048F00C2D5E830E70FB2D5E4C39BFBE49AFAE498
:10049F0099F9E498F8EC30E717B2D51204C51202B7
:1004AF00B7E4C39BFBE49AFAE499F9E498F8800364
:1004BF001202B730D50DE4C39FFFE49EFEE49DFD0D
:0404CF00E49CFC228B
:10026100E86010ECA2E713FCED13FDEE13FEEF13B3
:04027100FFD8F022A0
:060275008A838982E47314
:10035500020601E493A3F8E493A34003F68001F2B7
:1003650008DFF48029E493A3F85407240CC8C333A9
:10037500C4540F4420C8834004F456800146F6DF78
:10038500E4800B010204081020408090061AE47EE8
:10039500019360BCA3FF543F30E509541FFEE4936D
:1003A500A360010ECF54C025E060A840B8E493A334
:1003B500FAE493A3F8E493A3C8C582C8CAC583CA5F
:1003C500F0A3C8C582C8CAC583CADFE9DEE780BE17
:0106290000D0
:10027B0075F008758200EF2FFFEE33FECD33CDCC3A
:10028B0033CCC58233C5829BED9AEC99E5829840BD
:10029B000CF582EE9BFEED9AFDEC99FC0FD5F0D69A
:1002AB00E4CEFBE4CDFAE4CCF9A88222B800C1B9C4
:1002BB000059BA002DEC8BF084CFCECDFCE5F0CB02
:1002CB00F97818EF2FFFEE33FEED33FDEC33FCEB3B
:1002DB0033FB10D703994004EB99FB0FD8E5E4F9F6
:1002EB00FA227818EF2FFFEE33FEED33FDEC33FCE3
:1002FB00C933C910D7059BE99A4007EC9BFCE99AD7
:10030B00F90FD8E0E4C9FAE4CCFB2275F010EF2F1B
:10031B00FFEE33FEED33FDCC33CCC833C810D7071B
:10032B009BEC9AE899400AED9BFDEC9AFCE899F856
:0E033B000FD5F0DAE4CDFBE4CCFAE4C8F922E9
:00000001FF
