:0905F6007B017A00792B020091CF
:0C00160012057F7BFF7A0579F60205EAEF
:10000300410029804100420041002A0043003F0093
:020013000000EB
:0C05EA0090003FEBF0A3EAF0A3E9F02240
:030023000204458F
:10044500C0E0C0F0C083C082C0D075D000C000C07D
:0D04550001C002C003C004C005C006C007FE
:10046200309873C298900000E599F0E0FF640A604A
:1004720005EF640D703F900042E0FFD394004056B8
:10048200742B2FF582E43400F583E4F090002A0403
:10049200F0900042E4F090003FE0FBA3E0FAA3E01A
:1004A2004A4B600A90003FA3A3E0F91203BA9000FE
:1004B2002BE4F08021900042E0C394135018900086
:1004C20000E0FF900042E0FE04F0742B2EF582E47F
:0604D2003400F583EFF099
:1004D800D007D006D005D004D003D002D001D00078
:0B04E800D0D0D082D083D0F0D0E03222
:10057F0075985053890F438920900029E02480609B
:10058F001824C0600C24607016758BCC758DCC80D0
:10059F000E758BE6758DE68006758BF3758DF3C240
:0805AF00ABD28ED2ACD2AF2218
:0805FF008F993099FDC2992289
:1005B700900043EBF0A3EAF0A3E9F0900043E0FBDF
:1005C700A3E0FAA3E0F912038B6017900043A3E4BA
:1005D70075F0011203A4A9F0FA12038BFF1205FFAD
:0305E70080D92296
:05060700AE070205FF33
:030000000204F304
:0C04F300787FE4F6D8FD75812102053AFF
:10038B00BB010689828A83E0225002E722BBFE0270
:09039B00E32289828A83E49322A3
:1003A400A3F8E0C5F025F0F0E5821582700215830C
:0603B400E0C838F0E82269
:0603BA008A838982E473CE
:10002600E5082404F582E43400F583E0050822900F
:100036000001300703900004E475F0011203FF028B
:10004600038B2000E97F2ED2008018EF540F2490F6
:10005600D43440D4FF30040BEF24BFB41A0050034D
:100066002461FFE50960021509050CE50C7002051F
:100076000B30070E900001E475F0011203FFEF024A
:1000860003ED0206077403D2078003E4C207F508EE
:10009600900001120416E4F509F50BF50CE509606C
:1000A600077F2012006980F5750AFFC201C200C2EF
:1000B60002C203C205C206C208120035FF700D3027
:1000C60007057F0012007AAF0CAE0B22B4255FC283
:1000D600D5C204120035FF24D0B40A00501A75F0B8
:1000E6000A780930D50508B6FF0106C6A426F6200B
:1000F600D5047002D20380D924CFB41A00EF50047D
:10010600C2E5D20402027BD20180C6D20080C0D2F0
:100116000280BCD2D580BAD20580B47F2012006995
:100126002002077401B5090040F1120026FF1200F3
:10013600690200A3D208D2068095120026FB12009F
:1001460026FA120026F94A4B7006794C7A037BFF91
:1001560020022EE509602A7E008E82758300120336
:10016600C060060EEE650A70F0C2D5EBC0E0EAC0CC
:10017600E0E9C0E0EE1202C2D0E0F9D0E0FAD0E049
:10018600FB12038BFF60AAEBC0E0EAC0E0E9C0E027
:10019600120069D0E02401F9D0E03400FAD0E0FB87
:1001A600E50A0460DCD50AD980877BFF7A0279BE2E
:1001B600D202809C791080027908C206C2088008A3
:1001C600D2D5790A8004790AC2D5E50A047002F507
:1001D6000AE4FAFDFEFF120026FC7B08200113123A
:1001E6000026FD7B1030000A120026FE120026FFB4
:1001F6007B20EC3382D592D55013C3E43000069FA2
:10020600FFE49EFEE42001039DFDE49CFCE4CBF8A4
:10021600C201EC700CCFCECDCCE824F8F870F38098
:1002260017C3EF33FFEE33FEED33FDEC33FCEB3358
:10023600FB994002FB0FD8E9EB300105F8D0E0C48A
:1002460048B201C0E00AEC4D4E4F78207B0070C2E8
:10025600EAB50A0040BCC0E01202C4D0F0D0E020EB
:100266000104C4C0E0C4B201C0F0120052D0F0D5FF
:10027600F0EB0200A312041F01405301BA5801110A
:100286004C010D4201BE4F01C64401C64901264339
:0802960001CC5501B04601B096
:10029E004501B047036C5001152D01192E013C2B61
:1002AE00011D23013A2003552A00D54800000134D0
:1002BE003F3F3F00790AA2D5200314300509B9103B
:1002CE00020404B9080104A2D5200602500104203C
:1002DE0002689202B509005034C0E07F2030031945
:1002EE007F30A20272067205500F12031BC202C2A9
:1002FE0006C205C2087F30800F300503E9C0E01248
:10030E000069300503D0E0F9D0E0B509CC3005170F
:10031E007F30B9100C1200697F583004077F788047
:10032E0003B908031200693002057F2D0200697FB0
:10033E00202008F87F2B2006F322920280CF286E11
:10034E00756C6C2900D2011200263001F8C20178BA
:10035E000930D50108F60200D52D50434958120038
:10036E00262403B405004001E49003679312005A5B
:0D037E00743A12005AD2037509040201BA44
:1004FF00020016E493A3F8E493A34003F68001F2FD
:10050F0008DFF48029E493A3F85407240CC8C333FD
:10051F00C4540F4420C8834004F456800146F6DFCC
:10052F00E4800B0102040810204080900003E47E59
:10053F00019360BCA3FF543F30E509541FFEE493C1
:10054F00A360010ECF54C025E060A840B8E493A388
:10055F00FAE493A3F8E493A3C8C582C8CAC583CAB3
:10056F00F0A3C8C582C8CAC583CADFE9DEE780BE6B
:0100150000EA
:1003C000BB010CE58229F582E5833AF583E02250F2
:1003D00006E92582F8E622BBFE06E92582F8E2223C
:0D03E000E58229F582E5833AF583E4932256
:1003ED00BB010689828A83F0225002F722BBFE01EF
:0203FD00F322E9
:1003FF00F8E0FBA3A3E0F925F0F0E5821582700287
:07040F001583E0FA38F0222A
:09041600EBF0A3EAF0A3E9F022E7
:10041F00D083D082F8E4937012740193700DA3A36C
:10042F0093F8740193F5828883E473740293686080
:06043F00EFA3A3A380DF80
:00000001FF
