:1001C1009000007403F0A3F07B017A0079007F02B4
:1001D100120003E4FB7D037F0212034B439504539A
:1001E10096FB7D047F021202947D047F021202D3EA
:1001F100EF70047B0180027B007D047F0212034BC0
:090201007FE87E0312030580E092
:10032900EF7802C333CE33CED8F9FFEF1FAC067096
:05033900011E4C600CE8
:0C033E0000750A02150AE50A60EC80F860
:01034A002290
:10030500EF7802C333CE33CED8F9FFEF1FAC0670BA
:05031500011E4C600E0A
:0C031A007508027509EFD509FDD508FA39
:0203260080E86D
:0103280022B2
:10000300EFD3940440037FFF2212020AFED394032A
:1000130040037FFF22EF14606A1470030200D814B8
:10002300700302012A1470030201762404600302A0
:1000330001BEEE700E900001120223F4529352940B
:100043000201BE12020AFFB4011090000112022342
:10005300FEF45293EE42940201BEEFB4020D9000FF
:1000630001120223429342940201BE12020A640364
:1000730060030201BE9000011202234293F45294E2
:100083000201BE12020AFF700E900001120223F455
:10009300529152920201BEEFB4011090000112027C
:1000A30023FFF45291EF42920201BE12020AFFB4FF
:1000B300020D900001120223429142920201BEEF0F
:1000C300640360030201BE9000011202234291F413
:1000D30052920201BE12020AFF700E900001120238
:1000E30023F4529552960201BEEFB4011090000121
:1000F300120223FFF45295EF42960201BE12020A46
:10010300FFB4020D900001120223429542960201B0
:10011300BEEF640360030201BE900001120223429A
:1001230095F452960201BE12020AFF700E9000016E
:10013300120223F452B152B20201BEEFB4010F9086
:100143000001120223FFF452B1EF42B2806D12029A
:100153000AFFB4020C90000112022342B142B280A2
:100163005AEF6403705590000112022342B1F45216
:10017300B2804812020AFF700D900001120223F4AC
:1001830052B352B48035EFB4010F90000112022331
:10019300FFF452B3EF42B4802212020AFFB4020CFE
:1001A30090000112022342B342B4800FEFB4030B59
:0E01B30090000112022342B3F452B47F0022E6
:10029400EFD3940440037FFF22ED70037FFF22EF2E
:1002A4001460121460141460161460182404701975
:1002B400ED42808017ED42908012ED42A0800DED5A
:0F02C40042B08008ED42E880037FFF227F0022D6
:10025000EFD3940440037FFF22ED70037FFF22EF72
:1002600014601314601614601914601C2404701EAA
:10027000EDF45280801BEDF452908015EDF452A005
:10028000800FEDF452B08009EDF452E880037FFF57
:04029000227F0022A7
:10034B00AE07EED3940440037FFF22EBB40107AF5B
:10035B00061202948008EB7005AF061202507FFF65
:01036B00226F
:1002D300EF1460111460121460131460142404707A
:1002E30014AE808013AE90800FAEA0800BAEB080B2
:1002F30007AEE880037FFF22EE5D60037F01227F6C
:0103030000F9
:0103040022D6
:0300000002036C8C
:0C036C00787FE4F6D8FD75810A0201C11B
:10020A00BB010689828A83E0225002E722BBFE02F2
:09021A00E32289828A83E4932225
:10022300BB010CE58229F582E5833AF583E0225090
:1002330006E92582F8E622BBFE06E92582F8E222DA
:0D024300E58229F582E5833AF583E49322F4
:00000001FF
